{
  "contractName": "Lottery",
  "abi": [
    {
      "inputs": [],
      "stateMutability": "nonpayable",
      "type": "constructor"
    },
    {
      "stateMutability": "payable",
      "type": "fallback",
      "payable": true
    },
    {
      "inputs": [],
      "name": "manager",
      "outputs": [
        {
          "internalType": "address",
          "name": "",
          "type": "address"
        }
      ],
      "stateMutability": "view",
      "type": "function",
      "constant": true
    },
    {
      "inputs": [
        {
          "internalType": "uint256",
          "name": "",
          "type": "uint256"
        }
      ],
      "name": "players",
      "outputs": [
        {
          "internalType": "address",
          "name": "",
          "type": "address"
        }
      ],
      "stateMutability": "view",
      "type": "function",
      "constant": true
    },
    {
      "inputs": [],
      "name": "showBalance",
      "outputs": [
        {
          "internalType": "uint256",
          "name": "",
          "type": "uint256"
        }
      ],
      "stateMutability": "view",
      "type": "function",
      "constant": true
    },
    {
      "inputs": [],
      "name": "luckydraw",
      "outputs": [],
      "stateMutability": "nonpayable",
      "type": "function"
    }
  ],
  "bytecode": "0x608060405234801561001057600080fd5b50336000806101000a81548173ffffffffffffffffffffffffffffffffffffffff021916908373ffffffffffffffffffffffffffffffffffffffff160217905550610696806100606000396000f3fe6080604052600436106100435760003560e01c8063481c6a75146100f25780635929cbdf1461011d57806381b2d07b14610134578063f71d96cb1461015f57610044565b5b662386f26fc10000341161008d576040517f08c379a0000000000000000000000000000000000000000000000000000000008152600401610084906103d3565b60405180910390fd5b6001339080600181540180825580915050600190039060005260206000200160009091909190916101000a81548173ffffffffffffffffffffffffffffffffffffffff021916908373ffffffffffffffffffffffffffffffffffffffff160217905550005b3480156100fe57600080fd5b5061010761019c565b6040516101149190610434565b60405180910390f35b34801561012957600080fd5b506101326101c0565b005b34801561014057600080fd5b506101496102f8565b6040516101569190610468565b60405180910390f35b34801561016b57600080fd5b50610186600480360381019061018191906104b4565b610300565b6040516101939190610434565b60405180910390f35b60008054906101000a900473ffffffffffffffffffffffffffffffffffffffff1681565b3373ffffffffffffffffffffffffffffffffffffffff1660008054906101000a900473ffffffffffffffffffffffffffffffffffffffff1673ffffffffffffffffffffffffffffffffffffffff161461024e576040517f08c379a000000000000000000000000000000000000000000000000000000000815260040161024590610553565b60405180910390fd5b600060018054905061025e61033f565b61026891906105a2565b90506000600182815481106102805761027f6105d3565b5b9060005260206000200160009054906101000a900473ffffffffffffffffffffffffffffffffffffffff1690508073ffffffffffffffffffffffffffffffffffffffff166108fc479081150290604051600060405180830381858888f193505050501580156102f3573d6000803e3d6000fd5b505050565b600047905090565b6001818154811061031057600080fd5b906000526020600020016000915054906101000a900473ffffffffffffffffffffffffffffffffffffffff1681565b60008044428260405160200161035793929190610623565b6040516020818303038152906040528051906020012060001c91505090565b600082825260208201905092915050565b7f696e73756666696369656e742062616c616e6365000000000000000000000000600082015250565b60006103bd601483610376565b91506103c882610387565b602082019050919050565b600060208201905081810360008301526103ec816103b0565b9050919050565b600073ffffffffffffffffffffffffffffffffffffffff82169050919050565b600061041e826103f3565b9050919050565b61042e81610413565b82525050565b60006020820190506104496000830184610425565b92915050565b6000819050919050565b6104628161044f565b82525050565b600060208201905061047d6000830184610459565b92915050565b600080fd5b6104918161044f565b811461049c57600080fd5b50565b6000813590506104ae81610488565b92915050565b6000602082840312156104ca576104c9610483565b5b60006104d88482850161049f565b91505092915050565b7f6e6f7420617574686f726973656420746f20706572666f726d206f706572617460008201527f696f6e0000000000000000000000000000000000000000000000000000000000602082015250565b600061053d602383610376565b9150610548826104e1565b604082019050919050565b6000602082019050818103600083015261056c81610530565b9050919050565b7f4e487b7100000000000000000000000000000000000000000000000000000000600052601260045260246000fd5b60006105ad8261044f565b91506105b88361044f565b9250826105c8576105c7610573565b5b828206905092915050565b7f4e487b7100000000000000000000000000000000000000000000000000000000600052603260045260246000fd5b6000819050919050565b61061d6106188261044f565b610602565b82525050565b600061062f828661060c565b60208201915061063f828561060c565b60208201915061064f828461060c565b60208201915081905094935050505056fea264697066735822122033223eb79b8d80b7f23e193297a50fdc5c1de4d384b62d0f04f17963027183f164736f6c634300080b0033",
  "immutableReferences": {},
  "source": "// SPDX-License-Identifier: MIT\npragma solidity ^0.8.0;\npragma experimental ABIEncoderV2;\n\ncontract Lottery\n{\n    address public manager ;\n    address[] public players; \n\n    constructor () {\n        manager = msg.sender;\n    }\n\n     fallback() external payable\n    {\n        require(msg.value>0.01 ether,\"insufficient balance\");\n        players.push(msg.sender);\n        \n    } \n\n    function showBalance() external view returns (uint ){\n        return (address(this).balance);\n    }\n    \n    function random() internal view returns (uint256){\n        uint x;\n        return uint256(keccak256(abi.encodePacked(block.difficulty,block.timestamp,x)));\n    }\n\n\n    function luckydraw() public {\n     require(manager==msg.sender,\"not authorised to perform operation\");\n\n        uint index = random()%players.length;\n        address payable lucky = payable (players[index]);\n        lucky.transfer(address(this).balance);\n    }\n}",
  "sourcePath": "C:\\Users\\aryan\\blockchain\\LotterySystem\\contracts\\Lottery.sol",
  "compiler": {
    "name": "solc",
    "version": "0.8.11+commit.d7f03943.Emscripten.clang"
  },
  "schemaVersion": "3.4.4",
  "updatedAt": "2022-06-05T09:14:42.189Z",
  "networkType": "ethereum",
  "devdoc": {
    "kind": "dev",
    "methods": {},
    "version": 1
  },
  "userdoc": {
    "kind": "user",
    "methods": {},
    "version": 1
  }
}